:020000040800F2
:10000000980600208901000891010008930100086A
:100010009501000897010008990100080000000000
:100020000000000000000000000000009B0100082C
:100030009D010008000000009F010008A1010008C8
:10004000A3010008A3010008A3010008A301000800
:10005000A3010008A3010008A3010008A3010008F0
:10006000A3010008A3010008A3010008A3010008E0
:10007000A3010008A3010008A3010008A3010008D0
:10008000A3010008A3010008A3010008A3010008C0
:10009000A3010008A3010008A3010008A3010008B0
:1000A000A3010008A3010008A3010008A3010008A0
:1000B000A3010008A3010008A3010008A301000890
:1000C000A3010008A3010008A3010008A301000880
:1000D000A3010008A3010008A3010008A301000870
:1000E000A3010008A3010008A301000800F002F822
:1000F00000F03AF80AA090E8000C82448344AAF188
:100100000107DA4501D100F02FF8AFF2090EBAE885
:100110000F0013F0010F18BFFB1A43F0010318473B
:10012000A8110000C8110000103A24BF78C878C197
:10013000FAD8520724BF30C830C144BF04680C60ED
:10014000704700000023002400250026103A28BF35
:1001500078C1FBD8520728BF30C148BF0B60704739
:100160001FB51FBD10B510BD00F031F81146FFF7E7
:10017000F7FF00F073FD00F04FF803B4FFF7F2FF54
:1001800003BC00F057F800000948804709480047C1
:10019000FEE7FEE7FEE7FEE7FEE7FEE7FEE7FEE737
:1001A000FEE7FEE704480549054A064B7047000094
:1001B000FD0B0008ED0000089800002098060020C4
:1001C00098020020980200207047704770477546DB
:1001D00000F02CF8AE4605006946534620F00700B3
:1001E000854618B020B5FFF7DDFFBDE820404FF091
:1001F00000064FF000074FF000084FF0000B21F011
:100200000701AC46ACE8C009ACE8C009ACE8C009DD
:10021000ACE8C0098D46704710B50446AFF30080C6
:100220002046BDE81040FFF7A8BF00000048704717
:100230003400002001491820ABBEFEE72600020072
:1002400070470000F8B504460D46042C02D0082C77
:1002500000D0F8BD2048046020480580ADF800506B
:1002600003208DF8020010208DF8030001212046A4
:1002700000F040FC042C02D0082C1CD10DE0694693
:10028000174800F0C9F8164800F051F940EA050691
:100290003146134800F051F90DE06946114800F06D
:1002A000BBF8104800F043F940EA050631460D4816
:1002B00000F043F900BF00BF002006E04FF6FF71D9
:1002C000094A22F81010411CC8B20528F6DB06487E
:1002D0000649086000BFBCE70C00002010000020A9
:1002E00000080140000C0140200000200800002010
:1002F00010B515480068042802D008280AD104E087
:10030000124800F014F9044604E0114800F00FF917
:10031000044600BF00BF0F480088A043C0430E49F9
:10032000096808800C4800680C49401A012101EB5B
:100330006000052190FBF1F201FB1200074901EB7F
:1003400040000549086010BD0C0000200008014075
:10035000000C0140100000200800002020000020B8
:100360000B4800680B49401A052101EB6000401E54
:1003700090FBF1F201FB1200064931F810004FF634
:10038000FF71884201D1002070470120FCE7000086
:10039000080000202000002000B5034603E04FF4D1
:1003A0007A7000F005F8181EA3F10103F7D100BD23
:1003B00000EBC001C9004FF0E022516100219161C2
:1003C0000521116100BF4FF0E021096901F480317E
:1003D0000029F8D004214FF0E0221161704700009D
:1003E00008B50121102000F085FB4FF40050ADF856
:1003F000000003208DF8020010208DF803006946EC
:10040000044800F009F84FF40051024800F093F856
:1004100008BD0000001001402DE9F0410246002512
:100420000026002000230024002791F803C00CF0D0
:100430000F0591F803C00CF0100CBCF1000F03D0B5
:1004400091F802C04CEA050591F800C0BCF1000F1C
:1004500031D0146800202BE04FF0010C0CFA00F3AF
:10046000B1F800C00CEA03069E4220D183004FF091
:100470000F0C0CFA03F7BC4305FA03FC4CEA040426
:1004800091F803C0BCF1280F06D14FF0010C0CFA13
:1004900000FCC2F814C00AE091F803C0BCF1480F98
:1004A00005D14FF0010C0CFA00FCC2F810C0401C42
:1004B0000828D1D31460B1F800C0BCF1FF0F34DDBF
:1004C000546800202EE000F1080C4FF0010808FAF3
:1004D0000CF3B1F800C00CEA03069E4221D1830060
:1004E0004FF00F0C0CFA03F7BC4305FA03FC4CEA7F
:1004F000040491F803C0BCF1280F05D100F1080CE9
:1005000008FA0CF8C2F8148091F803C0BCF1480F47
:1005100007D100F1080C4FF0010808FA0CF8C2F8F6
:100520001080401C0828CED35460BDE8F0810146FD
:10053000886880B2704741617047C16070470AB1F6
:10054000016100E04161704770B5044611480068E0
:10055000042802D008281AD10CE00F48FFF7E7FF63
:100560000E490988214040EA010529460A48FFF75B
:10057000E4FF0CE00A48FFF7DAFF08490988214048
:1005800040EA010529460648FFF7D7FF00BF00BF34
:1005900070BD0000000000200008014004000020A1
:1005A000000C014038B504460D46042C02D0082C3E
:1005B00000D038BD1248046012480580ADF80050E4
:1005C00003208DF8020010208DF803000121204641
:1005D00000F090FA042C02D0082C0AD104E06946FD
:1005E0000948FFF719FF04E069460848FFF714FFC0
:1005F00000BF00BF2846FFF7A7FF00BFD9E70000F4
:10060000000000200400002000080140000C014010
:1006100070B5044611480068042802D008281AD191
:100620000CE00F48FFF783FF0E490988214020EABC
:10063000010529460A48FFF780FF0CE00A48FFF74A
:1006400076FF08490988214020EA01052946064825
:10065000FFF773FF00BF00BF70BD00000000002067
:100660000008014004000020000C014070B5002487
:100670000EE00021204600F0B3F9002504E0002040
:1006800000F028FA681CC5B2802DF8DB601CC4B2EB
:10069000082CEEDB70BD000008B51E4800881E491E
:1006A00009880843ADF8000003208DF802001020EF
:1006B0008DF8030001211948006800F01BFA174863
:1006C0000068042802D0082822D110E069461448A6
:1006D000FFF7A2FE01220F4801881148FFF72FFF04
:1006E00001220D4801880E48FFF729FF10E06946F6
:1006F0000C48FFF791FE0122064801880948FFF7E0
:100700001EFF0122044801880648FFF718FF00BFBA
:1007100000BF08BD180000201A00002014000020AF
:1007200000080140000C014070B504462C480068E8
:10073000042802D0082850D127E0002516E08020A8
:10074000284100EA0402274801882748FFF7F7FEFE
:100750000122264801882448FFF7F1FE00222348A1
:1007600001882148FFF7EBFE681CC5B2082DE6DBC7
:1007700001221E4801881C48FFF7E1FE00221B48A9
:1007800001881948FFF7DBFE27E0002516E08020EE
:10079000284100EA0402134801881548FFF7CFFEFC
:1007A0000122124801881248FFF7C9FE00220F48B3
:1007B00001880F48FFF7C3FE681CC5B2082DE6DBB1
:1007C00001220A4801880A48FFF7B9FE00220748BB
:1007D00001880748FFF7B3FE00BF00BF70BD0000EF
:1007E000140000201A00002000080140180000201A
:1007F000000C014010B51D480068042802D00828EC
:1008000032D118E001221A4801881A48FFF797FEF2
:100810000122194801881748FFF791FE0022144869
:1008200001881448FFF78BFE002213480188114805
:10083000FFF785FE18E001220D4801880F48FFF7F9
:100840007EFE01220C4801880C48FFF778FE00224A
:10085000074801880948FFF772FE00220648018810
:100860000648FFF76CFE00BF00BF10BD140000205B
:100870001A0000200008014018000020000C014070
:1008800010B517480068042802D0082826D112E0C5
:100890000022144801881448FFF751FE0122134832
:1008A00001881148FFF74BFE01220E4801880E48CF
:1008B000FFF745FE12E000220A4801880C48FFF7C6
:1008C0003EFE0122094801880948FFF738FE01224F
:1008D000044801880648FFF732FE00BF00BF10BD84
:1008E000140000201A000020000801401800002019
:1008F000000C014070B504460D461646042C02D08B
:10090000082C00D070BD2E4804602E4805802E486B
:100910000680002006E0002100E0491CB1F57A7F46
:10092000FBD3401CB0F57A7FF5D3FFF7B5FEAE20C0
:1009300000F0C0F8D52000F0BDF8802000F0BAF833
:10094000A82000F0B7F83F2000F0B4F8D32000F062
:10095000B1F8002000F0AEF8402000F0ABF8A12084
:1009600000F0A8F8C82000F0A5F8DA2000F0A2F8FE
:10097000122000F09FF8812000F09CF8CF2000F0BA
:1009800099F8D92000F096F8F12000F093F8DB20D8
:1009900000F090F8302000F08DF8A42000F08AF8E4
:1009A000A62000F087F88D2000F084F8142000F0D5
:1009B00081F8AF2000F07EF8FFF758FE00BFA1E7F6
:1009C00014000020180000201A00002010B5024674
:1009D000012000E050430B1EA1F10101FAD110BD2E
:1009E00070B505460C4645F0B00000F063F81021E4
:1009F00041EA141000F05EF804F00F0000F05AF81D
:100A000070BD2DE9F04780460E4617461D4600246E
:100A100012E0281B411E0220FFF7D8FFB7FBF0F0C1
:100A200000F0010000F130093019C1B24A464046D9
:100A300000F006F8601CC4B2AC42EADBBDE8F08707
:100A40002DE9F04104460D4616466A1ED206110EE7
:100A5000621E5206100EFFF7C3FF002709E0A6F141
:100A60002001134A02EB0111C85D00F033F8781C35
:100A7000C7B2082FF3DB6A1ED206110E621E0123D5
:100A800003EB4202D0B2FFF7ABFF00270BE0A6F169
:100A90002001074A02EB011207F10801505C00F047
:100AA00019F8781CC7B2082FF1DBBDE8F08100000F
:100AB000D80C000810B50446FFF79CFE7820FFF71D
:100AC00033FE0020FFF730FE2046FFF72DFEFFF734
:100AD000D7FE10BD10B50446FFF78CFE7820FFF757
:100AE00023FE4020FFF720FE2046FFF71DFEFFF704
:100AF000C7FE10BD29B1064A92690243044B9A61B0
:100B000004E0034A92698243014B9A6170470000F6
:100B10000010024010B500F001F810BD0CB5002027
:100B2000019000903348006840F4803031490860FB
:100B300000BF3048006800F4003000900198401C6D
:100B40000190009818B90198B0F5A06FF1D129482B
:100B5000006800F4003010B10120009001E0002096
:100B600000900098012843D12348006840F010000D
:100B7000214908600846006820F007000860084620
:100B8000006840F0020008601A484068194948604F
:100B90000846406848600846406840F48060486005
:100BA0000846406820F47C1048600846406840F4DD
:100BB000E81048600846006840F08070086000BF98
:100BC0000C48006800F000700028F9D0094840681F
:100BD00020F00300074948600846406840F00200E2
:100BE000486000BF0348406800F00C000828F9D1B5
:100BF0000CBD0000001002400020024010B5134858
:100C0000006840F00100114908600846406810493A
:100C100008400E494860084600680E4908400B49E4
:100C200008600846006820F4802008600846406894
:100C300020F4FE0048604FF41F008860FFF76AFF51
:100C40004FF000600449086010BD00000010024031
:100C50000000FFF8FFFFF6FE08ED00E0FFF7C0FB25
:100C60004FF6FF710420FFF79DFC40F602010820BB
:100C7000FFF7E8FA402220210820FFF73BFE26E09C
:100C8000FFF736FB1420FFF787FBFFF769FB01280E
:100C900004D14FF6FF70FFF7BBFC03E04FF6FF7087
:100CA000FFF752FC0A4800680A49401A052101EB87
:100CB0006000401E90FBF1F201FB1200054931F883
:100CC00010401023224601210846FFF79AFED7E77D
:100CD0001C0000202A00002000000000000000008E
:100CE0000000000000000000000000F8000000000C
:100CF000000000333000000000100C06100C06004D
:100D0000000000000000000040C07840C0784000B3
:100D1000043F04043F040400007088FC0830000015
:100D2000001820FF211E0000F008F000E01800006D
:100D300000211C031E211E0000F008887000000026
:100D40001E2123241927211010160E000000000078
:100D50000000000000000000000000E01804020095
:100D6000000000071820400000020418E000000006
:100D70000040201807000000404080F08040400004
:100D80000202010F01020200000000F0000000005A
:100D90000101011F0101010000000000000000002E
:100DA00080B07000000000000000000000000000A3
:100DB000000101010101010100000000000000002C
:100DC00000303000000000000000000080601804C7
:100DD000006018060100000000E010080810E000A4
:100DE000000F102020100F00001010F8000000006D
:100DF0000020203F202000000070080808887000B4
:100E00000030282422213000003008888848300033
:100E10000018202020110E000000C02010F8000053
:100E200000070424243F240000F8088888080800EC
:100E30000019212020110E0000E010888818000001
:100E4000000F112020110E0000380808C8380800D3
:100E50000000003F00000000007088080888700053
:100E6000001C222121221C0000E010080810E000D4
:100E70000000312222110F00000000C0C00000005D
:100E80000000003030000000000000800000000082
:100E9000000080600000000000008040201008007A
:100EA0000001020408102000404040404040400043
:100EB000040404040404040000081020408000001E
:100EC0000020100804020100007048080808F00023
:100ED0000000003036010000C030C828E810E000F3
:100EE0000718272423140B000000C038E00000007E
:100EF000203C23020227382008F8888888700000E8
:100F0000203F202020110E00C030080808083800BB
:100F1000071820202010080008F808080810E00032
:100F2000203F202020100F0008F88888E8081000D3
:100F3000203F20202320180008F88888E8081000A7
:100F4000203F200003000000C030080808380000DF
:100F500007182020221E020008F808000008F808E0
:100F6000203F210101213F20000808F80808000067
:100F70000020203F2020000000000808F80808009A
:100F8000C08080807F00000008F888C02818080012
:100F9000203F20012638200008F80800000000004B
:100FA000203F20202020300008F8F800F8F8080042
:100FB000203F003F003F200008F830C00008F8083C
:100FC000203F200007183F00E01008080810E0004C
:100FD0000F10202020100F0008F808080808F00063
:100FE000203F210101010000E01008080810E00086
:100FF0000F18242438504F0008F88888888870001B
:10100000203F2000030C30200070880808083800BA
:101010000038202121221C00180808F808081800B0
:101020000000203F2000000008F808000008F80831
:10103000001F202020201F000878880000C83808E2
:10104000000007380E010000F80800F80008F8005A
:10105000033C0700073C03000818688080681808F4
:1010600020302C03032C30200838C800C838080072
:101070000000203F2000000010080808C8380800C1
:101080002038262120201800000000FE0202020065
:101090000000007F40404000000C30C00000000015
:1010A000000000010638C00000020202FE0000003D
:1010B000004040407F0000000000040202020400E3
:1010C0000000000000000000000000000000000020
:1010D0008080808080808080000202040000000008
:1010E0000000000000000000000080808080000000
:1010F0000019242222223F2008F8008080000000EE
:10110000003F112020110E000000008080800000B0
:10111000000E112020201100000000808088F800BF
:10112000000E112020103F200000808080800000F1
:10113000001F222222221300008080F08888881855
:101140000020203F20200000000080808080800060
:10115000006B94949493600008F8008080800000F5
:10116000203F210000203F200080989800000000D0
:101170000020203F20200000000000809898000000
:1011800000C08080807F000008F800008080800020
:10119000203F24022D302000000808F80000000045
:1011A0000020203F20200000808080808080800000
:1011B000203F20003F20003F808000808080000092
:1011C000203F210000203F20000080808080000020
:1011D000001F202020201F00808000808000000051
:1011E00080FFA12020110E00000000808080800080
:1011F000000E112020A0FF80808080008080800071
:1012000020203F212000010000008080808080009D
:101210000033242424241900008080E08080000012
:101220000000001F2020000080800000008080005F
:10123000001F202020103F208080800000808080C0
:1012400000010E3008060100808000800080808050
:101250000F300C030C300F00008080008080800075
:101260000020312E0E3120008080800000808080A0
:1012700080818E7018060100008080808080800050
:101280000021302C2221300000000000807C02026E
:1012900000000000003F404000000000FF00000090
:1012A00000000000FF0000000002027C800000003F
:1012B0000040403F0000000000060101020204045B
:1012C0000000000000000000E812000800000020FC
:1012D000200000002801000808130008200000205A
:1012E000780600004401000804000000FFFF000031
:1012F0000000000004000000FFFF000004000000E8
:08130000FFFFFFFF00000000E9
:04000005080000ED02
:00000001FF
